:1000000009C016C015C015C013C012C011C010C061
:100010000FC00EC011241FBECFE9CDBF20E0A0E667
:10002000B0E001C01D92A136B207E1F72AD050C05E
:10003000E7CF8F938FB78F93809160008F5F80930E
:1000400060008F918FBF8F9118951FBC83B784601C
:1000500083BF83B78C7F83BF89B7826089BF12BE9D
:10006000089512BE83B7887F83BF0895379A389A60
:1000700086B1836086B9369A3699FECF84B195B140
:100080000895BC9ABA98C498789480E1F82E00E05C
:1000900010E0ECDFEC01CD3B82E0D80720F011113D
:1000A00001C0D3DF11E0809160008A3048F0011177
:1000B00006C0CD3BD24020F088B38F2588BB01E03D
:1000C000809160008E3128F3CCDF10926000DFCF8A
:0400D000F894FFCFD2
:00000001FF
